:100000000C9435000C945D000C945D000C945D0024
:100010000C945D000C945D000C945D000C945D00EC
:100020000C945D000C945D000C945D000C945D00DC
:100030000C945D000C945D000C945D000C945D00CC
:100040000C94C7000C945D000C9445020C94810242
:100050000C945D000C945D000C945D000C945D00AC
:100060000C945D000C945D003C0311241FBECFEF87
:10007000D8E0DEBFCDBF11E0A0E0B1E0E4E7F9E0F9
:1000800002C005900D92A031B107D9F711E0A0E1AF
:10009000B1E001C01D92AA3CB107E1F710E0CAE649
:1000A000D0E004C02297FE010E94B404C836D107F4
:1000B000C9F70E949C010C94B8040C94000040E81D
:1000C00055E260E070E083E291E00C94BC02CF93D3
:1000D000DF9383E291E00E94A901181619060CF043
:1000E00053C083E291E00E94D8019093190180935C
:1000F0001801C09709F048C0C0E1D1E006C064E62D
:1001000070E080E090E00E943B0183E291E00E9479
:10011000A901181619069CF783E291E00E94D80104
:100120008993999381E0C831D80779F760911001DC
:10013000709111014AE050E083E291E00E9488044E
:1001400060911201709113014AE050E083E291E066
:100150000E94880460911401709115014AE050E0FA
:1001600083E291E00E94880460911601709117016A
:100170004AE050E083E291E00E94880483E291E04B
:10018000DF91CF910C94CB03DF91CF9108951F9213
:100190000F920FB60F9211242F933F938F939F933B
:1001A000AF93BF9380911A0190911B01A0911C0104
:1001B000B0911D0130912201232F2D5F2D3720F4A6
:1001C0000196A11DB11D05C0232F2A570296A11D1E
:1001D000B11D2093220180931A0190931B01A093DB
:1001E0001C01B0931D0180911E0190911F01A091EF
:1001F0002001B09121010196A11DB11D80931E0126
:1002000090931F01A0932001B0932101BF91AF9162
:100210009F918F913F912F910F900FBE0F901F9044
:1002200018950F931F939FB7F89400911E0110919A
:100230001F01209120013091210186B5A89B06C0A5
:100240008F3F21F00F5F1F4F2F4F3F4F9FBF322F28
:10025000212F102F0027080F111D211D311D42E0F5
:10026000000F111F221F331F4A95D1F7B801C90192
:100270001F910F910895CF92DF92EF92FF92CF934B
:10028000DF936B017C010E941101EB010EC00E9403
:1002900011016C1B7D0B683E734038F081E0C81A79
:1002A000D108E108F108C851DC4FC114D104E104C0
:1002B000F10469F7DF91CF91FF90EF90DF90CF903D
:1002C0000895789484B5826084BD84B5816084BDCE
:1002D00085B5826085BD85B5816085BDEEE6F0E0BF
:1002E000808181608083E1E8F0E01082808182601B
:1002F0008083808181608083E0E8F0E0808181609C
:100300008083E1EBF0E0808184608083E0EBF0E0CB
:10031000808181608083EAE7F0E08081846080836F
:100320008081826080838081816080838081806819
:1003300080831092C10008950E9461010E945F00B5
:10034000C8E7D2E00E9467002097E1F30E9478029C
:10035000F9CFFC0184859585FC01E05CFF4F20818D
:100360003181FC01EE5BFF4F80819181281B390BAD
:100370002F733327C9010895FC0184859585FC01FD
:10038000E05CFF4F40815181FC01EE5BFF4F20811B
:1003900031814217530741F00190F081E02DE80FC1
:1003A000F91F208130E002C02FEF3FEFC90108950F
:1003B000FC0184859585FC01E05CFF4F4081518103
:1003C000FC01EE5BFF4F208131814217530781F022
:1003D000A081B181A80FB91F8C91208131812F5F3D
:1003E0003F4F2F73332731832083282F30E002C003
:1003F0002FEF3FEFC9010895FC0186859785FC0129
:10040000E05CFF4FDC01AE5BBF4F408151812D911D
:100410003C91119742175307C1F70895CF93DF938B
:10042000FC0186859785DC01A05CBF4F2D913C9136
:1004300011972F5F3F4F2F733327EC01CE5BDF4FB8
:100440004881598124173507D9F30D90BC91A02D0F
:10045000A80FB91F6C93A685B785A05CBF4F1196F6
:100460003C932E93A689B7892C9181E090E0058C6E
:1004700002C0880F991F0A94E2F7282B2C9381E081
:1004800090E0DF91CF91089508951F920F920FB6DB
:100490000F9211242F933F934F938F939F93EF933A
:1004A000FF934091C6008091C6019091C7010196CB
:1004B0008F7399272091C8013091C9018217930742
:1004C00059F0E091C601F091C701EA57FE4F408311
:1004D0009093C7018093C601FF91EF919F918F91F7
:1004E0004F913F912F910F900FBE0F901F90189535
:1004F00083E291E00E94A901892B11F00C9444023F
:1005000008951F920F920FB60F9211242F933F93CD
:100510008F939F93EF93FF932091820130918301FA
:1005200080918401909185012817390731F48091D9
:10053000C1008F7D8093C10014C0E0918401F091CF
:100540008501EE5BFE4F20818091840190918501B1
:1005500001968F739927909385018093840120934E
:10056000C600FF91EF919F918F913F912F910F9036
:100570000FBE0F901F901895CF92DF92EF92FF92CF
:10058000CF93DF93EC016A017B01411581EE58079F
:1005900061057105F9F0EC89FD8981E090E00E8C30
:1005A00002C0880F991F0A94E2F7808360E079E027
:1005B0008DE390E0A70196010E949004215031093B
:1005C000410951095695479537952795211580E1A1
:1005D000380798F0EC89FD89108260E874E88EE1B4
:1005E00090E0A70196010E94900421503109410931
:1005F00051095695479537952795E889F9893083AC
:10060000EA89FB892083EE89FF89408181E090E0BF
:100610009C010A8C02C0220F331F0A94E2F7422B7E
:100620004083EE89FF8940819C010B8C02C0220F20
:10063000331F0A94E2F7422B4083EE89FF89408101
:100640009C010C8C02C0220F331F0A94E2F7422B4C
:100650004083EE89FF8920810D8C02C0880F991F8D
:100660000A94E2F7809582238083DF91CF91FF90F7
:10067000EF90DF90CF9008951092260110922501FF
:1006800088EE93E0A0E0B0E08093270190932801EA
:10069000A0932901B0932A0184E091E09093240172
:1006A0008093230186E891E09093300180932F019D
:1006B00082E491E0909332018093310185EC90E0E7
:1006C000909334018093330184EC90E09093360151
:1006D0008093350180EC90E090933801809337014E
:1006E00081EC90E090933A018093390186EC90E0A0
:1006F00090933C0180933B0184E080933D0183E033
:1007000080933E0187E080933F0185E08093400124
:1007100081E0809341010895CF92DF92EF92FF92A2
:100720000F931F93CF93DF936C01EB017A01E60ED9
:10073000F71E00E010E00BC06991D601ED91FC912D
:100740000190F081E02DC6010995080F191FCE1503
:10075000DF0591F7C801DF91CF911F910F91FF90B5
:10076000EF90DF90CF900895DB010D900020E9F726
:10077000AD0141505109461B570BDC01ED91FC9135
:100780000280F381E02D0994DC01ED91FC91019050
:10079000F081E02D09940F931F93CF93DF93EC0129
:1007A0006DE00E94C4038C016AE0CE010E94C40384
:1007B0009C01200F311FC901DF91CF911F910F9133
:1007C00008954F925F926F927F929F92AF92BF92E5
:1007D000CF92DF92EF92FF920F931F93CF93DF930D
:1007E000CDB7DEB7A1970FB6F894DEBF0FBECDBF71
:1007F0005C016A017B01922E19A281E0821710F040
:100800008AE0982E8E010F5D1F4F492C512C612CD0
:10081000712CC701B601A30192010E9490048C2D96
:10082000929E80191124015011098A3014F4805DC0
:1008300001C0895CF801808369017A01C114D10487
:10084000E104F10431F7B801C5010E94B403A19697
:100850000FB6F894DEBF0FBECDBFDF91CF911F91D1
:100860000F91FF90EF90DF90CF90BF90AF909F904F
:100870007F906F905F904F900895CF92DF92EF92AC
:10088000FF920F931F93CF93DF93EC016A017B01DB
:100890002115310579F4E881F9810190F081E02D8D
:1008A000642FDF91CF911F910F91FF90EF90DF9018
:1008B000CF9009942A30310519F477FD0EC02AE053
:1008C000B701A601CE01DF91CF911F910F91FF904B
:1008D000EF90DF90CF900C94E1036DE20E94C4038F
:1008E0008C0144275527BA014C195D096E097F090F
:1008F0002AE0CE010E94E103080F191FC801DF9111
:10090000CF911F910F91FF90EF90DF90CF900895BE
:100910009A01AB01662757FD6095762F0C943D0434
:10092000A1E21A2EAA1BBB1BFD010DC0AA1FBB1FF3
:10093000EE1FFF1FA217B307E407F50720F0A21B65
:10094000B30BE40BF50B661F771F881F991F1A94D2
:1009500069F760957095809590959B01AC01BD01FC
:10096000CF010895EE0FFF1F0590F491E02D09943B
:04097000F894FFCF29
:10097400000000000E028C03A901D801BC01FC0197
:00000001FF
