:100000000C945D000C9485000C9485000C94850084
:100010000C9485000C9485000C9485000C9485004C
:100020000C9485000C9485000C9485000C9485003C
:100030000C9485000C9485000C9485000C9485002C
:100040000C94A7020C9485000C94CD040C94090523
:100050000C9485000C9485000C9485000C9485000C
:100060000C9485000C94850000000007000201003C
:100070000003040600000000000000000102040864
:100080001020408001020408102001020408102002
:10009000040404040404040402020202020203032E
:1000A0000303030300000000250028002B000000CC
:1000B0000000240027002A00C40511241FBECFEF32
:1000C000D8E0DEBFCDBF11E0A0E0B1E0E2E5FDE0A9
:1000D00002C005900D92AC31B107D9F711E0ACE147
:1000E000B1E001C01D92AE3DB107E1F710E0CAEBEF
:1000F000D0E004C02297FE010E949706C83BD107BA
:10010000C9F70E9424040C94A7060C94000040E850
:1001100055E260E070E087E391E00E94440561E011
:1001200080910A010E94380261E0809108010E94DA
:10013000380261E0809106010E94380261E08091FE
:1001400004010E94380261E0809102010E9438029D
:1001500061E0809100010C943802AF92BF92CF927F
:10016000DF92EF92FF920F931F93CF93DF9387E37A
:1001700091E00E943104181619060CF03FC187E384
:1001800091E00E94600490932D0180932C01C09710
:1001900009F034C1C4E2D1E006C06AE070E080E05A
:1001A00090E00E941B0387E391E00E94310418163F
:1001B00019069CF787E391E00E9460048993999364
:1001C00081E0CC32D80779F71092230110922201F6
:1001D000109221011092200110921F0110921E0115
:1001E00010921D0110921C01609124017091250153
:1001F0006D38710584F1882777FD8095982F1F92BF
:100200001F921F922FEF2F93A12CB12C6501E12C8F
:10021000F12C8701EA942CE830E040E050E00E94A5
:10022000DD03709323016093220161E080910A0154
:100230000E94700260E0809108010E94700260914B
:10024000220170912301809106010E947C030F908E
:100250000F900F900F9080912401909125018E5660
:1002600091094F9780F460E080910A010E9470022A
:1002700060E0809108010E94700260E070E080916F
:1002800006010E947C0360912401709125016E3665
:1002900071057CF5882777FD8095982F1F921F9216
:1002A0001F922FEF2F93A12CB12C6501E12CF12C83
:1002B00087012EE630E040E050E00E94DD037093BD
:1002C0001F0160931E0160E080910A010E9470028C
:1002D00061E0809108010E94700260911E0170919E
:1002E0001F01809106010E947C030F900F900F90D8
:1002F0000F9060912601709127016D38710584F18E
:10030000882777FD8095982F1F921F921F922FEFBD
:100310002F93A12CB12C6501E12CF12C8701EA94DB
:100320002CE830E040E050E00E94DD0370932101B2
:100330006093200161E0809104010E94700260E0FE
:10034000809102010E947002609120017091210150
:10035000809100010E947C030F900F900F900F90EE
:1003600080912601909127018E5691094F9780F434
:1003700060E0809104010E94700260E080910201BF
:100380000E94700260E070E0809100010E947C0396
:1003900060912601709127016E3671057CF58827E2
:1003A00077FD8095982F1F921F921F922FEF2F930A
:1003B000A12CB12C6501E12CF12C87012EE630E057
:1003C00040E050E00E94DD0370931D0160931C012A
:1003D00060E0809104010E94700261E0809102015E
:1003E0000E94700260911C0170911D0180910001BA
:1003F0000E947C030F900F900F900F9065E070E0CB
:1004000080E090E0DF91CF911F910F91FF90EF90EE
:10041000DF90CF90BF90AF900C941B03833069F0B6
:1004200028F48130A1F0823011F514C08630B1F08B
:100430008730C1F08430D9F404C0809180008F7778
:1004400003C0809180008F7D80938000089584B5E3
:100450008F7702C084B58F7D84BD08958091B000F0
:100460008F7703C08091B0008F7D8093B000089596
:10047000CF93DF9390E0FC01E458FF4F4491FC01DF
:10048000E057FF4F8491882341F190E0880F991F36
:10049000FC01E255FF4F25913491D9018C559F4FB6
:1004A000FC0185919491C82FD92F9FB7F8948C9116
:1004B000611106C0409584238C938881842308C0F1
:1004C000623041F4242F209582238C938881842BE1
:1004D000888302C0842B8C939FBFDF91CF910895B6
:1004E0000F931F93CF93DF931F92CDB7DEB7282FC3
:1004F00030E0F901E859FF4F8491F901E458FF4FCA
:100500001491F901E057FF4F04910023D1F08823A3
:1005100021F069830E940E026981E02FF0E0EE0F66
:10052000FF1FEC55FF4F85919491DC019FB7F89424
:100530008C91611103C01095812301C0812B8C9394
:100540009FBF0F90DF91CF911F910F9108951F9240
:100550000F920FB60F9211242F933F938F939F9377
:10056000AF93BF9380912E0190912F01A091300104
:10057000B091310130913601232F2D5F2D3720F4BA
:100580000196A11DB11D05C0232F2A570296A11D5A
:10059000B11D2093360180932E0190932F01A093DB
:1005A0003001B09331018091320190913301A091DB
:1005B0003401B09135010196A11DB11D8093320126
:1005C00090933301A0933401B0933501BF91AF9163
:1005D0009F918F913F912F910F900FBE0F901F9081
:1005E00018950F931F939FB7F894009132011091C3
:1005F0003301209134013091350186B5A89B06C0A6
:100600008F3F21F00F5F1F4F2F4F3F4F9FBF322F64
:10061000212F102F0027080F111D211D311D42E031
:10062000000F111F221F331F4A95D1F7B801C901CE
:100630001F910F910895CF92DF92EF92FF92CF9387
:10064000DF936B017C010E94F102EB010EC00E945E
:10065000F1026C1B7D0B683E734038F081E0C81AD4
:10066000D108E108F108C851DC4FC114D104E104FC
:10067000F10469F7DF91CF91FF90EF90DF90CF9079
:100680000895789484B5826084BD84B5816084BD0A
:1006900085B5826085BD85B5816085BDEEE6F0E0FB
:1006A000808181608083E1E8F0E010828081826057
:1006B0008083808181608083E0E8F0E080818160D8
:1006C0008083E1EBF0E0808184608083E0EBF0E008
:1006D000808181608083EAE7F0E0808184608083AC
:1006E0008081826080838081816080838081806856
:1006F00080831092C10008951F93CF93DF93182F2A
:10070000EB0161E00E943802209711F460E004C020
:10071000CF3FD10539F461E0812FDF91CF911F9157
:100720000C947002E12FF0E0E859FF4FE491E330C0
:10073000B9F028F4E13051F0E230B1F50CC0E63008
:1007400019F1E73049F1E43079F514C084B58068D7
:1007500084BDC7BD2EC084B5806284BDC8BD29C01C
:1007600080918000806880938000D0938900C0933E
:1007700088001FC080918000806280938000D093A9
:100780008B00C0938A0015C08091B0008068809370
:10079000B000C093B3000DC08091B0008062809320
:1007A000B000C093B40005C0C038D1050CF0B3CF81
:1007B000ADCFDF91CF911F9108954F925F926F92CD
:1007C0007F92AF92BF92CF92DF92EF92FF920F9300
:1007D0001F93CF93DF93CDB7DEB729013A01621B98
:1007E000730B840B950B29893A894B895C892A19EB
:1007F0003B094C095D09298B3A8B4B8B5C8B9B0128
:10080000AC0169897A898B899C890E943C06E4182D
:10081000F50806091709A80197010E946E062A0D1E
:100820003B1D4C1D5D1DB901CA01DF91CF911F9188
:100830000F91FF90EF90DF90CF90BF90AF907F909F
:100840006F905F904F9008950E9441030E9487002F
:10085000C0E0D5E00E94AD002097E1F30E940005C2
:10086000F9CFFC0184859585FC01E05CFF4F208178
:100870003181FC01EE5BFF4F80819181281B390B98
:100880002F733327C9010895FC0184859585FC01E8
:10089000E05CFF4F40815181FC01EE5BFF4F208106
:1008A00031814217530741F00190F081E02DE80FAC
:1008B000F91F208130E002C02FEF3FEFC9010895FA
:1008C000FC0184859585FC01E05CFF4F40815181EE
:1008D000FC01EE5BFF4F208131814217530781F00D
:1008E000A081B181A80FB91F8C91208131812F5F28
:1008F0003F4F2F73332731832083282F30E002C0EE
:100900002FEF3FEFC9010895FC0186859785FC0113
:10091000E05CFF4FDC01AE5BBF4F408151812D9108
:100920003C91119742175307C1F70895CF93DF9376
:10093000FC0186859785DC01A05CBF4F2D913C9121
:1009400011972F5F3F4F2F733327EC01CE5BDF4FA3
:100950004881598124173507D9F30D90BC91A02DFA
:10096000A80FB91F6C93A685B785A05CBF4F1196E1
:100970003C932E93A689B7892C9181E090E0058C59
:1009800002C0880F991F0A94E2F7282B2C9381E06C
:1009900090E0DF91CF91089508951F920F920FB6C6
:1009A0000F9211242F933F934F938F939F93EF9325
:1009B000FF934091C6008091DA019091DB0101968E
:1009C0008F7399272091DC013091DD018217930705
:1009D00059F0E091DA01F091DB01E656FE4F4083D9
:1009E0009093DB018093DA01FF91EF919F918F91BA
:1009F0004F913F912F910F900FBE0F901F90189520
:100A000087E391E00E943104892B11F00C94CC040F
:100A100008951F920F920FB60F9211242F933F93B8
:100A20008F939F93EF93FF932091960130919701BD
:100A300080919801909199012817390731F480919C
:100A4000C1008F7D8093C10014C0E0919801F091A6
:100A50009901EA5AFE4F2081809198019091990165
:100A600001968F7399279093990180939801209311
:100A7000C600FF91EF919F918F913F912F910F9021
:100A80000FBE0F901F901895CF92DF92EF92FF92BA
:100A9000CF93DF93EC016A017B01411581EE58078A
:100AA00061057105F9F0EC89FD8981E090E00E8C1B
:100AB00002C0880F991F0A94E2F7808360E079E012
:100AC0008DE390E0A70196010E944C062150310968
:100AD000410951095695479537952795211580E18C
:100AE000380798F0EC89FD89108260E874E88EE19F
:100AF00090E0A70196010E944C062150310941095E
:100B000051095695479537952795E889F989308396
:100B1000EA89FB892083EE89FF89408181E090E0AA
:100B20009C010A8C02C0220F331F0A94E2F7422B69
:100B30004083EE89FF8940819C010B8C02C0220F0B
:100B4000331F0A94E2F7422B4083EE89FF894081EC
:100B50009C010C8C02C0220F331F0A94E2F7422B37
:100B60004083EE89FF8920810D8C02C0880F991F78
:100B70000A94E2F7809582238083DF91CF91FF90E2
:100B8000EF90DF90CF90089510923A0110923901C2
:100B900088EE93E0A0E0B0E080933B0190933C01AD
:100BA000A0933D01B0933E0180E191E09093380124
:100BB000809337018AE991E0909344018093430147
:100BC00086E591E0909346018093450185EC90E0A5
:100BD000909348018093470184EC90E090934A0100
:100BE0008093490180EC90E090934C0180934B01FD
:100BF00081EC90E090934E0180934D0186EC90E063
:100C00009093500180934F0184E08093510183E0E1
:100C10008093520187E08093530185E080935401D3
:100C200081E0809355010895CF92DF92EF92FF9279
:100C30000F931F93CF93DF936C01EB017A01E60EC4
:100C4000F71E00E010E00BC06991D601ED91FC9118
:100C50000190F081E02DC6010995080F191FCE15EE
:100C6000DF0591F7C801DF91CF911F910F91FF90A0
:100C7000EF90DF90CF900895DB018F939F930E94B8
:100C80008A06BF91AF91A29F800D911DA39F900DE9
:100C9000B29F900D11240895A1E21A2EAA1BBB1B2E
:100CA000FD010DC0AA1FBB1FEE1FFF1FA217B30738
:100CB000E407F50720F0A21BB30BE40BF50B661F4E
:100CC000771F881F991F1A9469F760957095809512
:100CD00090959B01AC01BD01CF010895052E97FBB6
:100CE00016F4009407D057FD0DD00E944C0607FC67
:100CF00009D07EF490958095709561957F4F8F4FC8
:100D00009F4F089550954095309521953F4F4F4FF7
:100D10005F4F08950E949B06A59F900DB49F900D74
:100D2000A49F800D911D11240895EE0FFF1F0590C3
:100D3000F491E02D0994A29FB001B39FC001A39F3D
:100D400001D0B29F700D811D1124911D0895F8945A
:020D5000FFCFD3
:100D52000A0009000800050004000300000000006A
:0C0D620096041406310460044404840468
:00000001FF
