:100000000C945D000C9485000C9485000C94850084
:100010000C9485000C9485000C9485000C9485004C
:100020000C9485000C9485000C9485000C9485003C
:100030000C9485000C9485000C9485000C9485002C
:100040000C9461010C9485000C94DF020C941B034A
:100050000C9485000C9485000C9485000C9485000C
:100060000C9485000C94850000000007000201003C
:100070000003040600000000000000000102040864
:100080001020408001020408102001020408102002
:10009000040404040404040402020202020203032E
:1000A0000303030300000000250028002B000000CC
:1000B0000000240027002A00D60311241FBECFEF22
:1000C000D8E0DEBFCDBF11E0A0E0B1E0E0EFF8E0A6
:1000D00002C005900D92A231B107D9F711E0A2E15B
:1000E000B1E001C01D92A23CB107E1F710E0CAEBFC
:1000F000D0E004C02297FE010E947204C83BD107E1
:10010000C9F70E9436020C9476040C94000040E873
:1001100055E260E070E08BE191E00E94560361E0FF
:10012000809100010C94F2000F931F93CF93DF9303
:100130008C01C0E0D0E017C061E0809100010E9416
:100140002A0168EC70E080E090E00E94D50160E058
:10015000809100010E942A0168EC70E080E090E04C
:100160000E94D5012196C017D10734F3DF91CF91BA
:100170001F910F9108958BE191E00E947202C09748
:100180000E94940068EE73E080E090E00C94D5014A
:10019000833069F028F48130A1F0823011F514C069
:1001A0008630B1F08730C1F08430D9F404C080913A
:1001B00080008F7703C0809180008F7D80938000C6
:1001C000089584B58F7702C084B58F7D84BD08956E
:1001D0008091B0008F7703C08091B0008F7D8093B5
:1001E000B0000895CF93DF9390E0FC01E458FF4FF7
:1001F0004491FC01E057FF4F8491882341F190E046
:10020000880F991FFC01E255FF4F25913491D901C8
:100210008C559F4FFC0185919491C82FD92F9FB782
:10022000F8948C91611106C0409584238C93888149
:10023000842308C0623041F4242F209582238C93BC
:100240008881842B888302C0842B8C939FBFDF918D
:10025000CF9108950F931F93CF93DF931F92CDB744
:10026000DEB7282F30E0F901E859FF4F8491F901FA
:10027000E458FF4F1491F901E057FF4F0491002318
:10028000D1F0882321F069830E94C8006981E02FA2
:10029000F0E0EE0FFF1FEC55FF4F85919491DC01CC
:1002A0009FB7F8948C91611103C01095812301C010
:1002B000812B8C939FBF0F90DF91CF911F910F9156
:1002C00008951F920F920FB60F9211242F933F9310
:1002D0008F939F93AF93BF938091120190911301DD
:1002E000A0911401B091150130911A01232F2D5FB7
:1002F0002D3720F40196A11DB11D05C0232F2A57CB
:100300000296A11DB11D20931A01809312019093B2
:100310001301A0931401B0931501809116019091DF
:100320001701A0911801B09119010196A11DB11DED
:100330008093160190931701A0931801B0931901AF
:10034000BF91AF919F918F913F912F910F900FBED1
:100350000F901F9018950F931F939FB7F8940091DB
:10036000160110911701209118013091190186B5DD
:10037000A89B06C08F3F21F00F5F1F4F2F4F3F4FAD
:100380009FBF322F212F102F0027080F111D211D75
:10039000311D42E0000F111F221F331F4A95D1F774
:1003A000B801C9011F910F910895CF92DF92EF928A
:1003B000FF92CF93DF936B017C010E94AB01EB01B5
:1003C0000EC00E94AB016C1B7D0B683E734038F081
:1003D00081E0C81AD108E108F108C851DC4FC11406
:1003E000D104E104F10469F7DF91CF91FF90EF9020
:1003F000DF90CF900895789484B5826084BD84B5F1
:10040000816084BD85B5826085BD85B5816085BD0F
:10041000EEE6F0E0808181608083E1E8F0E0108228
:10042000808182608083808181608083E0E8F0E069
:10043000808181608083E1EBF0E080818460808353
:10044000E0EBF0E0808181608083EAE7F0E080818A
:1004500084608083808182608083808181608083EA
:100460008081806880831092C10008950E94FB0102
:100470000E948700C2E1D3E00E94BB002097E1F315
:100480000E941203F9CFFC0184859585FC01E05C94
:10049000FF4F20813181FC01EE5BFF4F8081918114
:1004A000281B390B2F733327C9010895FC0184855C
:1004B0009585FC01E05CFF4F40815181FC01EE5BC2
:1004C000FF4F208131814217530741F00190F081A5
:1004D000E02DE80FF91F208130E002C02FEF3FEF41
:1004E000C9010895FC0184859585FC01E05CFF4FFE
:1004F00040815181FC01EE5BFF4F20813181421729
:10050000530781F0A081B181A80FB91F8C91208180
:1005100031812F5F3F4F2F73332731832083282F63
:1005200030E002C02FEF3FEFC9010895FC0186853E
:100530009785FC01E05CFF4FDC01AE5BBF4F408163
:1005400051812D913C91119742175307C1F708959E
:10055000CF93DF93FC0186859785DC01A05CBF4FBC
:100560002D913C9111972F5F3F4F2F733327EC0153
:10057000CE5BDF4F4881598124173507D9F30D90A1
:10058000BC91A02DA80FB91F6C93A685B785A05C60
:10059000BF4F11963C932E93A689B7892C9181E089
:1005A00090E0058C02C0880F991F0A94E2F7282B6F
:1005B0002C9381E090E0DF91CF91089508951F92F0
:1005C0000F920FB60F9211242F933F934F938F9357
:1005D0009F93EF93FF934091C6008091BE0190914D
:1005E000BF0101968F7399272091C0013091C101FD
:1005F0008217930759F0E091BE01F091BF01E258D4
:10060000FE4F40839093BF018093BE01FF91EF9115
:100610009F918F914F913F912F910F900FBE0F900F
:100620001F9018958BE191E00E944302892B11F0F5
:100630000C94DE0208951F920F920FB60F921124B0
:100640002F933F938F939F93EF93FF9320917A0182
:1006500030917B0180917C0190917D0128173907B1
:1006600031F48091C1008F7D8093C10014C0E0916E
:100670007C01F0917D01E65CFE4F208180917C0140
:1006800090917D0101968F73992790937D018093BE
:100690007C012093C600FF91EF919F918F913F9134
:1006A0002F910F900FBE0F901F901895CF92DF9251
:1006B000EF92FF92CF93DF93EC016A017B0141152A
:1006C00081EE580761057105F9F0EC89FD8981E03B
:1006D00090E00E8C02C0880F991F0A94E2F7808385
:1006E00060E079E08DE390E0A70196010E944E045E
:1006F000215031094109510956954795379527955C
:10070000211580E1380798F0EC89FD89108260E8B6
:1007100074E88EE190E0A70196010E944E042150FA
:100720003109410951095695479537952795E8892B
:10073000F9893083EA89FB892083EE89FF8940812A
:1007400081E090E09C010A8C02C0220F331F0A94C2
:10075000E2F7422B4083EE89FF8940819C010B8C9C
:1007600002C0220F331F0A94E2F7422B4083EE8926
:10077000FF8940819C010C8C02C0220F331F0A9418
:10078000E2F7422B4083EE89FF8920810D8C02C065
:10079000880F991F0A94E2F7809582238083DF9166
:1007A000CF91FF90EF90DF90CF90089510921E01AF
:1007B00010921D0188EE93E0A0E0B0E080931F014D
:1007C00090932001A0932101B093220186E091E053
:1007D00090931C0180931B018EE791E09093280178
:1007E000809327018AE391E090932A018093290165
:1007F00085EC90E090932C0180932B0184EC90E0A9
:1008000090932E0180932D0180EC90E09093300125
:1008100080932F0181EC90E090933201809331011D
:1008200086EC90E0909334018093330184E08093D0
:10083000350183E08093360187E08093370185E0BE
:100840008093380181E0809339010895CF92DF923F
:10085000EF92FF920F931F93CF93DF936C01EB0105
:100860007A01E60EF71E00E010E00BC06991D60198
:10087000ED91FC910190F081E02DC6010995080FE2
:10088000191FCE15DF0591F7C801DF91CF911F9198
:100890000F91FF90EF90DF90CF900895A1E21A2E74
:1008A000AA1BBB1BFD010DC0AA1FBB1FEE1FFF1F14
:1008B000A217B307E407F50720F0A21BB30BE40B64
:1008C000F50B661F771F881F991F1A9469F76095AB
:1008D0007095809590959B01AC01BD01CF01089565
:1008E000EE0FFF1F0590F491E02D0994F894FFCFCF
:1008F0000D0000000000A802260443027202560206
:0209000096025D
:00000001FF
